S02B0000414D4954202D2043617220436F6E74726F6C207573696E672048616E64204D6F74696F6E2E73726536
S11300000C942A000C943C000C943C000C943C008E
S11300100C943C000C943C000C943C000C943C006C
S11300200C943C000C943C000C943C000C9479001F
S11300300C943C000C943C000C943C000C943C004C
S11300400C943C000C943C000C943C000C943C003C
S11300500C943C0011241FBECFE5D8E0DEBFCDBF19
S113006020E0A0E6B0E001C01D92AB36B207E1F794
S11300700E9403010C9408010C9400000E944E009D
S11300800E94480008950E943E000E94C600FDCFD1
S11300900E94B80008950E94C20008950E9454006E
S11300A008950E946400089586B1806886B986B177
S11300B0887F86B986B1876086B987B1806487B93D
S11300C087B18F7787B9089597B1907E97B997B123
S11300D0892B87B986B1806486B9349BFECF86B1FB
S11300E0806186B924B185B190E0982F8827822B4E
S11300F008951F920F920FB60F9211242F933F93DE
S11301004F935F936F937F938F939F93AF93BF931B
S1130110EF93FF938091600090916100019690931A
S11301206100809360002091630030916400821725
S1130130930769F4E0916900F0916A000995809150
S11301406200819582BF1092610010926000FF915D
S1130150EF91BF91AF919F918F917F916F915F913B
S11301604F913F912F910F900FBE0F901F901895B4
S11301708AB188618AB980B5866880BD83E389B90C
S113018010BC08955D9BFECF8CB9089580E00E9459
S113019051008C0181E00E945100EC0182E00E9438
S11301A051007C0183E00E9451009C01C017D107DB
S11301B048F4013083E0180770F40130114068F00E
S11301C080E010C0C13083E0D80748F4C130D1408A
S11301D040F080E007C083E005C08FE003C082E008
S11301E001C08FE02E153F0538F491E0E91692E046
S11301F0F90630F0846004C02130324008F0886091
S11302000E944B00C3CF0E94430080E090E0089519
S1070210F894FFCF8C
S9030000FC
